:1000000084C000009DC000009BC0000099C000009B
:1000100097C0000095C0000093C0000091C0000090
:100020008FC000008DC000008BC00000CCC300005A
:1000300087C0000085C0000083C0000081C00000B0
:100040007FC000007DC000007BC0000079C00000C0
:1000500077C0000075C0000073C0000027C1000019
:100060006FC000006DC000006BC0000069C00000E0
:1000700067C00000120353004E0045005300750096
:1000800069006E006F0000000E03410075007300F0
:1000900070006500780000000403090409022200D2
:1000A000010100C032090400000103000000092121
:1000B00011010001223A000705810308000A12011C
:1000C000100100000008EB034320000001020001C2
:1000D00005010904A1010901A10005010930093147
:1000E00009320933093409350936093716008026E3
:1000F000FF7F751095088182C0050919012928150F
:10010000002501750195288102C011241FBECFEF83
:10011000D2E0DEBFCDBF11E0A0E0B1E0EEE5FFE050
:1001200002C005900D92AE30B107D9F711E0AEE0F4
:10013000B1E001C01D92A73CB107E1F72CD00DC77B
:100140005FCFCF93DF9384B7877F84BF28E10FB65B
:10015000F89420936000109260000FBE80E190E060
:100160009093CD008093CC0086E08093CA0082E01B
:100170008093C800C9ECD0E02883539A5A9A8AB178
:1001800080638AB98BB180638BB912D388E9888385
:10019000DF91CF910895D5DF2FB7F8948AE391E0EE
:1001A0009093B9018093B8019093BB018093BA01F9
:1001B0002FBF789480E091E005D6B0D480910E01F5
:1001C00090910F01892BB1F380910E0190910F0155
:1001D000019790930F0180930E0180910E019091F1
:1001E0000F01892B39F75D9AE5CF0895089580E0D6
:1001F00091E0C5D5E2EEF0E08081846080830895CF
:1002000080E091E09CC480910B0190910C010097DB
:1002100029F0019790930C0180930B0108950F939F
:100220001F93CF93DF939FB7F8948091BC019FBF3A
:10023000853140F1C0E1D1E08AE391E0E091BA017B
:10024000F091BB015191F093BB01E093BA01E85BDF
:10025000F14021F49093BB018093BA016FB7F894F9
:100260004091BC0141504093BC016FBF5993E1E004
:10027000C532DE0719F75D9880ED97E090930F0186
:1002800080930E0185E1E0E1F1E0D90101900D924A
:100290008A95E1F785E190E0F8019183808380E021
:1002A000DF91CF911F910F91089508951F920F92A2
:1002B0000FB60F9211242F938F939F93EF93FF9379
:1002C0008091CE009EB3943029F52FB7F894909189
:1002D000BC012FBF9E37F1F0E091B801F091B90158
:1002E0008083E091B801F091B901CF01019690931C
:1002F000B9018093B801885B914021F48AE391E0D1
:10030000928381839FB7F8948091BC018F5F809323
:10031000BC019FBFFF91EF919F918F912F910F9003
:100320000FBE0F901F901895292F332723303105CA
:10033000B1F04CF42130310509F439C022303105D7
:1003400009F03AC007C02132310539F122323105B6
:1003500049F132C0E2E2F0E08CE990E031C0992747
:100360008130910561F08230910581F0892B21F572
:10037000E8E9F0E0E491F0E088E990E021C0E8E805
:10038000F0E0E491F0E088E890E01AC0E4E7F0E003
:10039000E491F0E084E790E013C0E9E0F0E08EEA59
:1003A00090E00EC0EAE3F0E080ED90E009C0E2E109
:1003B000F0E08EEB90E004C0E0E0F0E080E090E060
:1003C000DA018D939C93CF01089528E030E040E05E
:1003D00003C04F5F220F331F28173907D0F3842F34
:1003E0008295807F08958093E900EBEEF0E08081B4
:1003F00081608083EDEEF0E010826093EC0040833A
:100400008091EE00881F8827881F08951092F400BD
:1004100080E08093E9001092F0001092E8001092C2
:10042000ED009091EB009E7F9093EB008F5F853005
:1004300081F708958091BF0187FD05C08091E80094
:1004400080FF0DC010C08091E80082FD04C08EB313
:100450008111F9CF08958091E8008B7707C08EB3A2
:100460008111ECCF08958091E8008E778093E800A9
:10047000089585E69091EC0090FF05C09091E8000A
:1004800090FF05C01BC09091E80092FD17C09EB37D
:100490009923B1F09EB39530A9F09091EB0095FDB2
:1004A00013C09091E10092FFE5CF9091E1009B7F16
:1004B0009093E1008150F1F684E0089580E0089582
:1004C00082E0089583E0089581E00895AF92BF929D
:1004D000CF92DF92EF92FF920F931F93CF93DF9310
:1004E0001F92CDB7DEB7C82E8B017A019983C1DF89
:1004F000D82E9981811127C0AC2CB92E1CC08091B7
:10050000E80085FD11C08091E8008E778093E800B7
:10051000E114F10421F4ADDF882369F010C0F70184
:1005200009958130C1F70DC0F50181915F0180937C
:10053000F100015011090115110509F704C0D82E69
:1005400002C075E0D72E8D2D0F90DF91CF911F91B6
:100550000F91FF90EF90DF90CF90BF90AF900895F4
:100560002091C5013091C6012617370748F0611563
:10057000710539F42091E8002E772093E80001C03E
:10058000B901FC0190E029C08091E80083FD37C0EB
:100590008091E80082FD2DC08EB3882391F18EB347
:1005A000853089F18091E80080FF17C08091F200CA
:1005B00006C091919093F100615071098F5F6115B0
:1005C000710511F08830A8F391E0883009F090E0CF
:1005D0008091E8008E778093E80061157105A1F69F
:1005E0009111D2CF06C08EB3882359F08EB38530D7
:1005F00051F08091E80082FFF6CF80E0089581E01D
:10060000089582E0089583E008952091C501309116
:10061000C6012617370748F06115710539F4209196
:10062000E8002E772093E80001C0B9019C0190E01A
:100630002CC08091E80083FD3AC08091E80082FDE3
:1006400030C08EB38823A9F18EB38530A1F180919B
:10065000E80080FF1AC08091F20009C0F9012F5F05
:100660003F4FE491E093F100615071098F5F611594
:10067000710511F0883090F391E0883009F090E036
:100680008091E8008E778093E8006115710589F606
:100690009111CFCF06C08EB3882359F08EB3853029
:1006A00051F08091E80082FFF6CF80E0089581E06C
:1006B000089582E0089583E008956115710529F495
:1006C0002091E8002B772093E8009C0121C08091C5
:1006D000E80083FD2BC08EB3882371F18EB3853083
:1006E00039F18091E80082FFF2CFF90107C08091D3
:1006F000F10081939F016150710929F09F01809160
:10070000F2008111F4CF8091E8008B778093E800AC
:1007100061157105E1F68091E80080FD0BC08EB394
:10072000882351F08EB38530B1F702C081E008957F
:1007300083E0089580E0089582E008953ED040D09F
:100740001EBA1092BD0184E089BD89B5826089BD61
:1007500009B400FEFDCF8091D800982F9F77909329
:10076000D80080688093D800809163008E7F80934A
:1007700063008091D8008F7D8093D8008091E00045
:100780008E7F8093E0008091E1008E7F8093E10076
:100790008091E20081608093E2008091E100877F98
:1007A0008093E1008091E20088608093E2000895E8
:1007B000C5DF81E08093BE0108951092E2000895A4
:1007C0001092E10008951F920F920FB60F9211241C
:1007D0002F933F934F935F936F937F938F939F9349
:1007E000AF93BF93EF93FF938091E10080FF1BC015
:1007F0008091E20080FF17C08091E1008E7F80939E
:10080000E1008091E2008E7F8093E2008091E2001F
:1008100080618093E2008091D80080628093D8004C
:1008200019BC1EBAE3DC8091E10084FF29C08091ED
:10083000E20084FF25C084E089BD89B5826089BD5E
:1008400009B400FEFDCF8091D8008F7D8093D80041
:100850008091E1008F7E8093E1008091E2008F7EA5
:100860008093E2008091E20081608093E2008091B9
:10087000BD01882311F084E001C081E08EBBB5DCAE
:100880008091E10083FF22C08091E20083FF1EC0BF
:100890008091E100877F8093E10082E08EBB10921F
:1008A000BD018091E1008E7F8093E1008091E200A4
:1008B0008E7F8093E2008091E20080618093E2006D
:1008C000A5DD42E060E080E08EDD27D18091E1008F
:1008D00082FF0AC08091E20082FF06C08091E100A1
:1008E0008B7F8093E1008FDCFF91EF91BF91AF91FF
:1008F0009F918F917F916F915F914F913F912F9138
:100900000F900FBE0F901F9018950F931F93CF93CA
:10091000DF9300D0CDB7DEB7EFEBF1E08091F100CF
:10092000819381E0E73CF807C9F78091BF0190917E
:10093000C001953009F46FC038F4913071F170F056
:10094000933009F0E1C029C0983009F4A5C099306E
:1009500009F4B4C0963009F0D7C07FC0803809F4DC
:10096000C4C0823809F0D0C08091C3019091C40105
:10097000877099278093E9009091EB001092E9002D
:100980008091E800877F8093E80095FB882780F9B5
:100990008093F1001092F1008AC0882319F0823010
:1009A00009F0B2C08F71823009F09FC08091C101FF
:1009B00081112BC08091C3019091C4018770992748
:1009C000009709F492C08093E9002091EB0020FF8A
:1009D0008CC02091C001233021F48091EB00806213
:1009E00012C09091EB0090619093EB0021E030E019
:1009F00001C0220F8A95EAF72093EA001092EA00DC
:100A00008091EB0088608093EB001092E900809168
:100A1000E800877F4FC0811177C00091C10110911C
:100A2000C2018091E800877F8093E80003DD04C065
:100A30008EB3882309F459C08091E80080FFF8CF75
:100A4000C8018F779927009711F023E001C022E0B9
:100A50002EBB80688093E30048C08058823008F045
:100A600053C0AE014F5F5F4F6091C3018091C101E0
:100A70009091C20159DC0097C1F12091E800277FD5
:100A80002093E800BC0189819A81BFDD8091E80054
:100A90008B778093E80029C08038B1F58091E80019
:100AA000877F8093E8008091BD018093F100809161
:100AB000E8008E778093E800BDDC17C0811124C068
:100AC0009091C101923088F48091E800877F8093F3
:100AD000E8009093BD01AEDC8091BD01882311F048
:100AE00084E001C083E08EBB82DB8091E80083FF5D
:100AF0000DC08091EB0080628093EB008091E80054
:100B0000877F8093E80002C07BDBEFCF0F900F90D0
:100B1000DF91CF911F910F9108950895CF938EB3D8
:100B2000882359F0C091E900C7701092E9008091C4
:100B3000E80083FDEADEC093E900CF9108956F924B
:100B40007F928F929F92AF92BF92CF92DF92EF925D
:100B5000FF920F931F93CF93DF9300D01F92CDB7D7
:100B6000DEB77C01ADB6BEB68091E80083FFF0C071
:100B7000F701808190E02091C3013091C4012817D2
:100B8000390709F0E5C08091C001833009F492C0B3
:100B900030F4813071F0823009F0DAC0C1C08A309F
:100BA00009F4A7C08B3009F492C0893009F0D0C095
:100BB00049C08091BF01813A09F0CAC08DB69EB686
:100BC0008091E800877F8093E8001A8219828091E3
:100BD000C1011091C2018B83F70147818DB79EB788
:100BE000841B91090FB6F8949EBF0FBE8DBFCDB682
:100BF000DEB6EFEFCE1ADE0A360150E060E070E0BC
:100C0000C601A4D1412F41508E010F5F1F4F9601A5
:100C1000BE016D5F7F4FC70102DBF7012581368181
:100C20002115310529F0478150E0B601C90185D170
:100C30001092E90069817A81C30192DC8091E80019
:100C40008B772EC08091BF01813209F081C08DB6B3
:100C50009EB68091E800877F8093E8000091C501EF
:100C60001091C6017090C1016090C2018DB79EB70E
:100C7000801B910B0FB6F8949EBF0FBE8DBFCDB6F3
:100C8000DEB6EFEFCE1ADE0AB801C60116DD462D3C
:100C900041509601672DC70108DB8091E8008E77EF
:100CA0008093E800882D992D0FB6F8949EBF0FBE53
:100CB0008DBF4EC08091BF01813A09F049C080913B
:100CC000E800877F8093E800F701808539C0809134
:100CD000BF018132E9F58091E800877F8093E800C9
:100CE0009091C10181E0911101C080E0F7018087FE
:100CF0002EC08091BF01813259F58091E800877F35
:100D00008093E8008091C1019091C201882736E06C
:100D1000969587953A95E1F7F7019287818717C0F5
:100D20008091BF01813AA1F48091E800877F809390
:100D3000E800F70181859285969587959695879528
:100D40008093F1008091E8008E778093E80072DB59
:100D50000FB6F894BEBE0FBEADBE0F900F900F90B1
:100D6000DF91CF911F910F91FF90EF90DF90CF9087
:100D7000BF90AF909F908F907F906F900895CF938A
:100D8000DF93FC010896DC0185E0ED0119928A955C
:100D9000E9F781E0808784EF91E092878187228163
:100DA00033818481882311F0C4E001C0C0E0D18187
:100DB000C9010BDB4C2F482B426061EC8D2FDF917A
:100DC000CF9111CB4F925F926F927F928F929F92B1
:100DD000AF92BF92CF92DF92EF92FF920F931F9349
:100DE000CF93DF9300D01F92CDB7DEB77C01ADB6B5
:100DF000BEB68EB3843009F07AC0F701818180934A
:100E0000E9008091E80085FF72C06DB67EB647812B
:100E10008DB79EB7841B91090FB6F8949EBF0FBE85
:100E20008DBFCDB6DEB6EFEFCE1ADE0A1B821A8278
:100E30001982460150E060E070E0C60187D08E0163
:100E40000F5F1F4F960140E0BE016D5F7F4FC701EE
:100E5000E6D9482EF70121853285232B31F001E0B8
:100E600010E023853485232B11F000E010E0F7011A
:100E7000C580D680C114D10489F049815A81B60158
:100E8000C4014ED055245394009709F4512CF70116
:100E9000478150E0B401C60150D001C0512C2981D6
:100EA0003A81232BE9F0411004C0511002C000FF29
:100EB00017C0F7012185328534872387818180938C
:100EC000E9008B8181118093F10069817A8140E092
:100ED00050E0C401FBDA8091E8008E778093E8004F
:100EE000862D972D0FB6F8949EBF0FBE8DBF0FB6FF
:100EF000F894BEBE0FBEADBE0F900F900F90DF9165
:100F0000CF911F910F91FF90EF90DF90CF90BF9006
:100F1000AF909F908F907F906F905F904F900895CB
:100F2000FB01DC0104C08D910190801921F4415036
:100F30005040C8F7881B990B0895FB01DC0102C0E3
:100F400001900D9241505040D8F70895DC0101C046
:0E0F50006D9341505040E0F70895F894FFCFA4
:0E0F5E00000108000025011500000000000041
:00000001FF
